:400000000080002011000000110900001109000008B5044B1A6803F53F5302331A6000F097FC00BFFA46004010B5054C237833B9044B13B10448AFF300800123237010BDB0
:400040004881FF1F00000000201D0000084B10B51BB108490848AFF300800848036803B910BD074B002BFBD0BDE81040184700BF000000004C81FF1F201D0000C880FF1F88
:400080000000000008B500F0F5FF024B18701B7808BD00BF9D81FF1F80B582B062B6012001F0C4F9694801F033F801F061F9684801F004F900F0D0FF664800F0FDFF66486C
:4000C00000F0FAFF654800F0F7FF654800F0F4FF644800F0F1FF644800F0EEFF634800F0EBFF634800F0E8FF624800F0E5FF624800F0E2FF4FF40053019340F29B13009342
:40010000C823032208211F2000F0BCF95B4C63682360A3686360E368A36000F095FAE06004F11005A2685649284601F0D5F9284600F0C2FF62684BF668739A4252D9514B4A
:400140001B784BB10021084601F020F94E4801F0B5F800224B4B1A70484B596818689A68DB68A3F5C8739A4294BF00230123814288BF91420CD95BB1404B93F82420013244
:4001800083F82420012283F82520002001F04EF93A4A92F826300133DBB282F82630C82B38D1144692F8242002EB4202D2B2354E7270002584F8265084F8245004F11007FF
:4001C00013463249384601F087F9384600F074FF012084F82700294601F0D8F8707801F0F3F817E0254B93F827309BB1284800F063FF012001F070F80021084601F0C6F8B4
:40020000134801F05BF800221C4B83F8272001221C4B1A70194B93F8253093B1174B93F82830032B09D1154C002584F82550012001F0FCF884F8285003E001330F4A82F890
:400240002830322000F08CFE60E700BF85000000241D0000341D00003C1D00004C1D0000641D00009C1D0000C81D0000F01D0000581E0000701E0000781E00006481FF1FB2
:400280007C1E0000CC80FF1F841E0000981E0000A81E000038B5054600240134B4F57A7F04D1064800F008FF002038BD0021284600F06AFD0028F0D1012038BDC81E0000EF
:4002C00038B504460D46FFF7E5FF68B1284600F0EDFD0121204600F097FD002000F012FE044600F0C7FD00E00024204638BD00BF38B50D461446FFF7CDFF38B1284600F04E
:40030000D5FD204600F0D2FD00F0B4FD38BD00BF70B505460C46164601465720FFF7D0FF00EA0402324329465720FFF7E1FF70BD10B54022BF210920FFF7EAFF00240BE064
:4003400009215720FFF7BCFF10F0400F06D00134E4B2012000F004FE632CF1D910BD00BF08B50246F8210920FFF7D2FF08BD00BF08B502469F210A20FFF7CAFF08BD00BF7F
:4003800008B50246E3210A20FFF7C2FF08BD00BF08B50246FC210A20FFF7BAFF08BD00BF08B502460C215720FFF7A2FF08BD00BF08B502460D215720FFF79AFF08BD00BFCF
:4003C00008B502460E215720FFF792FF08BD00BF08B5024610215720FFF78AFF08BD00BF08B50246E0210820FFF792FF08BD00BF08B5002204215720FFF77AFF002205212C
:400400005720FFF775FF002206215720FFF770FF08BD00BF08B51022EF210820FFF778FF08BD00BF08B504215720FFF749FF08BD08B506215720FFF743FF08BD08B5013870
:4004400003281ED8DFE800F0020810160A46F8211120FFF75DFF08BD0A0102F0F0028F211120FFF755FF08BD0A46F8211220FFF74FFF08BD0A0102F0F0028F211220FFF779
:4004800047FF08BD2DE9F84306460D4614461F46DDF82080DDF8249000F0FAFAFFF748FF012D03D10020FFF79BFF20E0022D03D12020FFF795FF1AE0042D03D14020FFF78F
:4004C0008FFF14E0082D03D16020FFF789FF0EE0102D03D18020FFF783FF08E0202D03D1A020FFF77DFF02E04020FFF779FFFFF791FF032C03D10720FFF732FF08E0022C84
:4005000003D10320FFF72CFF02E00220FFF728FF4C4B1C70B9F5805F03DA0020FFF728FF17E0B9F5005F03DA2020FFF721FF10E0B9F5804F03DA4020FFF71AFF09E0B9F531
:40054000804F03D16020FFF713FF02E00020FFF70FFF632F03DC0020FFF712FF32E0C72F03DC0420FFF70CFF2CE0B7F5C87F03DA0820FFF705FF25E0B7F5487F03DA0C2027
:40058000FFF7FEFE1EE0B7F57A7F03DA1020FFF7F7FE17E0B7F5C86F03DA1420FFF7F0FE10E0B7F5486F03DA1820FFF7E9FE09E0B7F5486F03D11C20FFF7E2FE02E0002066
:4005C000FFF7DEFEB8F1750F03DC0020FFF7E0FE18E0B8F1D60F03DC0120FFF7D9FE11E0B8F5CD7F03DC0220FFF7D2FE0AE040F29B13984503D10320FFF7CAFE02E00020C7
:40060000FFF7C6FE3046FFF7CBFE3046FFF7D0FE3046FFF7D5FE3046FFF7DAFE01210846FFF70CFF012C03D902210846FFF706FF022C03D903210846FFF700FFFFF7D8FEEB
:40064000BDE8F8839C81FF1F10B582B0FFF7F0FE0446FFF7E7FE844230D0002301938DF803305720FFF716FE30B3072000F01EFC0121572000F0C8FB012000F043FC012098
:4006800000F040FC012000F03DFC012000F03AFC8DF80200012000F035FC8DF80100002000F030FC8DF8000000F0E4FB009BC3F311030193FFF79CFE019800E0002002B0CA
:4006C00010BD00BFFEE700BFF0B40022174611E050F82760F3B226F0FF0608E001EB420511F812406D78A5550132013BDBB2002BF4D10137152FEBD9F0BC7047064B1B785F
:40070000DBB203F00701054A11701B09013213704422034B1A707047CF0100496E5800407658004008B50A46002100F0CCFE08BD38B54FF49C72244B1A80182202331A7078
:40074000022203F27E231A7008224FF040231A70032103F5007319701C4B1B78DBB21C490B701C4B1A8041F25122023B1A80002419250CE0184B1B7803F0010343EA440432
:4007800004F003044FF4F07000F056FE013D0DB1032CEFD115B90320FFF794FF0F4B4FF480721A8007221A7000220D490A704820023108701A700222033B1A70094A1378BD
:4007C00043F00103137038BD8040004008010049A146004022420040254200400440004006400040A243004008B500F061FE08BD38B572B6354A137843F004031370002486
:400800000CE0334D630019194A0011462A44084691882858FFF786FF0134E4B2082CF0D900240BE02A49A3001819420088188022C16B806BFFF7D8FF0134E4B2002CF1D008
:4008400024494FF09040FFF73FFF234A137843F0020313701032137843F0020313701F4C237843F040032370A2F58632513A137843F010031370082219491A48FFF7B4FFB9
:40088000082219491948FFF7AFFF082218491948FFF7AAFF0A2218491848FFF7A5FF184A137843F008031370164D61232B70FFF73FFF81232B700122134B1A70FFF71EFFD4
:4008C0000E2221461148FFF78FFF38BDE8460040DC1E00005800004803500140A04300406C030048C251004074030048125100407C0300482251004084030048305100405A
:40090000224300400048004004000840B043004008B500F0A1FD03680C2B00D1FEE7FEE708B5094B1A681044084BC31A802B02DC054B186005E000F08FFD0C2303604FF0E9
:40094000FF32104608BD00BFD080FF1FB881FF1F08B5104E104D16E029686B68AC68002204E051F8040B43F8040B0432A242F8D1E868002203E0002143F8041B043282426C
:40098000F9D11035013E002EE6D100F06BFDFFF783FBFEE701000000781F000008B5104A104B1A60104A136843F40073136000230AE0032B03D80D4A52F8231000E00C49BE
:4009C0000C4A42F8231001332F2BF2D90A4B1A780A4B1A70074A0A4B1A60FFF709FF08BD0004FA050CED00E014ED00E000000000110900000080FF1FBC760040C080FF1FED
:400A000008ED00E010B50222114B1A7081220E3B1A70082202331A70042211331A70002401331C704FF400420A4B1A6007210F2000F0CAFA08490F2000F0B2FA1022074BDC
:400A40001A70074B1C70074B1C70074B1C7010BDD649004080E100E0B90A00009E81FF1FA281FF1FAA81FF1FA081FF1F08B500F0EBFC064A137843F0040313701032137823
:400A800043F00403137000F0E3FC08BDA543004008B5074B1B7823B9FFF7B4FF0122044B1A70FFF7E3FF4FF40042024B1A6008BD8D81FF1F00E100E038B5A54B1C78A54B63
:400AC0001B7813F0400F00F03A81E4B214F0010F00F01D819F4B1B78453B052B00F21481DFE813F006008200120112010600DF0004F0DF0504F00A04082C42D1954B1B7889
:400B0000DBB2452B35D1944B1B7813F0FF0F10D0924B1B681B78DBB2914A137004228C4B1A7001228F4B1A7046228A4B1A702C46EDE08D4B1B7813F0020F0DD08B4A1378A1
:400B400043F00A0313706022824B1A704FF40042874B1A602C46DAE0864A137843F0100313701022844B1A700422023B1A702C46CDE00022764B1A704A22764B1A702C468B
:400B8000C5E00A2C2BD1794A137843F0A0031370754B1B7813F0020F14D06E4B1B7813F0080F01D0092300E00A23704A11780B4313706022674B1A704FF400426C4B1A6074
:400BC0002C46A4E06B4A137843F0100313701022694B1A700422023B1A702C4697E0002000F0BCF92C4692E014F0020F36D15D4B1A78D2B2584B1B78DBB29A4210D2594A09
:400C00001378DBB255490968CB5CDBB254490B7004214F4B197013780133DBB2137076E0514B1B7813F0020F0CD0504A137843F00A0313706022474B1A704FF400424C4B93
:400C40001A6064E04B4A137843F0100313701022494B1A700422023B1A7058E0424B1B7813F0020F0CD0414A137843F09A0313706022384B1A704FF400423D4B1A6046E0A3
:400C80003C4A137843F01003137010223A4B1A700422023B1A70354A137843F09003137035E0364A1378DBB2354908682C490978C9B2C15413780133DBB213701278D2B2DB
:400CC000304B1B78DBB29A4203D21022204B1A701DE0254B1B7813F0020F0CD0234A137843F00903137060221A4B1A704FF400421F4B1A600BE01F4A137843F01003137055
:400D00000022134B1A7002E0002000F027F914F0200F1CD00F4B1B7813F0080F01D0012300E00223114A11780B431370114A137803F0EF0313701022064B1A7038BD054B22
:400D40001B7813F0100F02D11022024B1A7038BDD74900409E81FF1FA181FF1FAC81FF1FD8490040A081FF1FA881FF1FA281FF1F80E100E0D6490040D9490040AA81FF1F52
:400D8000A481FF1FA981FF1F1A4B1B78DBB2102B29D1194B1B7813F0080F26D14FF40042164B1A604000C0B229B140F001004922104B1A7002E045220E4B1A70104B18706A
:400DC000012201331A700F4B1B7813F0010FFAD00C4B1B7803F00A030A2B08D11022054B1A700320704702207047012070470020704700BF9E81FF1FD949004080E100E043
:400E0000D8490040D7490040164B1B7813F0040F23D04000C0B229B140F001004922124B1A7002E04522104B1A70104B1870122201331A700422023B1A700D4B1B7813F007
:400E4000010FFAD00A4B1B7803F00A030A2B06D11022054B1A7003207047022070470020704700BFD94900409E81FF1FD8490040D74900400A4B1B7813F0040F0ED01023E0
:400E8000074A13700421023A1170064A1370064B1B7813F0210FFAD00020704702207047D94900409E81FF1FD7490040114B1B7813F0040F1BD0104B18700422013B1A705A
:400EC00046220E4B1A700E4B1B7813F0010FFAD00B4B1B7813F0020F04D16022074B1A70002070476022054B1A70032070470220704700BFD9490040D84900409E81FF1F09
:400F0000D7490040114B1B7813F0040F1BD0104B1B78DBB2492B05D100220E4B1A704A220B4B1A700B4B1B7813F0010FFAD00A4B1B78DBB218B11021064A117004E06021E0
:400F4000034A117000E0002318467047D94900409E81FF1FD7490040D849004001BE704710B5044605E0084B186800F065FAA4F50044B4F5004FF6D8034B586800FB04F0FF
:400F800000F05AFA10BD00BFD480FF1F08B5034B1B7A00FB03F000F04FFA08BDD480FF1F70B504460E46074B1D681F2802D90020FFF7D4FF04F01F04103455F8240045F843
:400FC000246070BD08ED00E038B504460D46072902D90020FFF7C2FF1F2C02D90020FFF7BDFF04F01F0000F1604000F564406D01EDB2057038BD00BF7222074B1A70002301
:40100000064A137006215F3A11704721103211704E321370704700BF876500408565004010B500F011FA04460A4A137843F020031370023A137843F010031370013A13788A
:4010400043F01003137000F071F8204600F000FA10BD00BF9765004008B5054B1B7823B9FFF7CAFF0122024B1A70FFF7D9FF08BD8E81FF1F084B1B78DBB213F0200F06D0C6
:40108000064A1078C0B213F01E0F02D17047002070470020704700BF6565004044650040034B1B7813F0040FFAD1024B18707047646500404765004038B5074B1B782BB9D3
:4010C00038BDFFF7EDFF0134A4B201E005460024285D0028F5D138BD8E81FF1F014B1B681864704708ED00E04001C0B2014B1870704700BF00E400E00122014B1A60704771
:4011000000E100E00122014B1A60704780E100E010B50446FFF7F6FF2046FFF7DFFF0720FFF7E2FFFFF7E8FF10BD00BF054A137843F0010313701032137843F00103137057
:40114000704700BFA243004010B50B4C237803F09F032370237803F0F00323702378184340F0100020700120FFF710FF237803F0EF03237010BD00BFC051004038B50546CD
:401180000E4C237843F020032370237803F0BF0323700020FFF7FAFE237803F0F003237023781D4345F0100525700120FFF7EEFE237803F0EF03237038BD00BFC051004057
:4011C00070B5354B1A7802F08002D2B21A7033490A7802F0F00242F00F020A7001310A7802F0F0020A7001310A7802F0F0020A701A7802F0DF021A701A7842F040021A70F4
:401200004FF4CA760020FFF7C1FE234D2B7843F010032B700120FFF7B9FE214B1C78E4B22B7803F0EF032B700020FFF7AFFE04F00804E4B22B7843F010032B700120FFF7E7
:40124000A5FE2B7803F0EF032B7014B90A20FFF79DFE013E0CB1002ED4D10F4A137803F0BF031370137803F08003DBB213700232137803F0F00313700132137803F0F00358
:4012800043F00F0313700132137803F0F00343F00F03137070BD00BFC0510040C2510040C151004010B50446FFF78AFF2009FFF765FF04F00F00FFF761FF10BD38B50546A9
:4012C0000078012404E0FFF7EDFF285D0134E4B20028F8D138BD00BF10B50446FFF770FF2009FFF731FF04F00F00FFF72DFF10BD08B52820FFF734FE0320FFF725FF052052
:40130000FFF72EFE0320FFF71FFF0F20FFF728FE0320FFF719FF0120FFF722FE0220FFF713FF0520FFF71CFE0620FFF7D5FF0E20FFF7D2FF2C20FFF7CFFF0820FFF7CCFF64
:401340000120FFF7C9FF0C20FFF7C6FF0320FFF7C3FF0520FFF704FE08BD00BF08B50C20FFF7BAFF0122014B1A7008BD9081FF1F08B5054B5B7823B9FFF7BAFF0122024BCB
:401380005A70FFF7EBFF08BD9081FF1F08B5032819D8DFE800F002070D1381F08000FFF79BFF08BDA1F14000C0B2FFF795FF08BDA1F16C00C0B2FFF78FFF08BDA1F12C0086
:4013C000C0B2FFF789FF08BD10B584B000238DF80E30092211E0144BA3FB0013DB081C4603EB83035900431ADBB2303304A9114401F80C3C2046013AD2B20928EBD80A4B1D
:40140000A3FB0013DB0803EB83035900431ADBB2303304A9114401F80C3C01AB9818FFF74DFF04B010BD00BFCDCCCCCC014B1870704700BF766500400230800803D000BFFB
:4014400001380046FCD17047EFF3108072B6704780F31088704700BF014B1868704700BF4481FF1F0E4B70B51E460E4C0025E41AA410A54204D056F8253098470135F8E70D
:4014800000F068FD084B094C1E46E41AA4100025A54204D056F8253098470135F8E770BD601F0000601F0000601F0000681F000010B5431E0A44914204D011F8014B03F806
:4014C000014FF8E710BD03460244934202D003F8011BFAE7704700000EB400B54FF402719CB0ADF814106FF00041049107914FF6FF711DAB02900690084853F8042BADF8E8
:401500001610006802A9019300F064F8029B00221A701CB05DF804EB03B070474481FF1F2DE9F0478E6882469E420C46914698463ED88A8912F4906F3AD02568096902239E
:401540006F1A656905EB450595FBF3F57B1C43449D4238BF1D4653050FD5294600F040FB064698B13A462169FFF7A2FFA38923F4906343F08003A38113E02A4600F08EFB13
:40158000064670B92169504600F0DEFA0C23CAF80030A3894FF0FF3043F04003A381BDE8F08726613E44266046466561ED1BA560464528BF464649463246206800F0A8FA50
:4015C000A36800209B1BA36023681E442660BDE8F08700002DE9F04F9DB003938B8980461C060D4616460DD50B695BB9402100F0F7FA2860286118B90C23C8F80030CDE03B
:4016000040236B610023099320238DF82930DFF89CB130238DF82A3037463C4614F8013B1BB9B7EB060910D003E0252BF9D02746F3E74B46324629464046FFF771FF0130C1
:4016400000F0A780099B4B4409933B78002B00F0A08000234FF0FF3204930793059206938DF853301A930126052221784E4800F041FA671C049B38B14B4A3C46801A06FA89
:4016800000F018430490EFE7D90644BF20228DF853201A0744BF2B228DF8532022782A2A03D0079A00210A200BE0039A111D12680391002A10DA524243F002000792049075
:4016C0000BE027463B780134303B092B03D800FB02320121F5E701B107923B782E2B1ED17B782A2B0AD1039B02371A1D1B680392002BB8BF4FF0FF33059310E00023194657
:401700000593781C0A2407463A780130303A092A03D804FB01210123F5E703B1059103223978224800F0E6F940B14023CBEB000003FA00F0049B0137184304903978062297
:401740001B487E1C8DF8281000F0D4F988B1194B33B9039B073323F007030833039314E003AB00932A46144B04A94046AFF3008007E003AB00932A460F4B04A9404600F035
:4017800093F8B0F1FF3F824603D0099B5344099342E7AB895B0601D4099801E04FF0FF301DB0BDE8F08F00BF201F0000261F00002A1F000000000000211500002DE9F047CA
:4017C00091461F460A698B6806469342B8BF1346C9F8003091F843200C46DDF8208012B10133C9F800302368990642BFD9F800300233C9F80030256815F0060510D104F105
:40180000190A07E00123524639463046C04701301AD00135E368D9F800209B1A9D42F1DB94F843302268003318BF012392060FD5E118302081F843005A1C94F84510224404
:40184000023382F8431003E04FF0FF30BDE8F08704F1430239463046C0470130F4D02268D9F80050E36802F00602042A08BF5D1B2269A3680CBF25EAE57500259342C4BF2A
:401880009B1AED184FF000091A344D4509D00123224639463046C0470130D5D009F10109F3E70020BDE8F0872DE9F04317460A7E85B06E2A984606460C460C9B01F1430E94
:4018C00000F0AE8011D8632A22D009D8002A00F0BB80582A40F0CA8081F84520834955E0642A1ED0692A1CD0C0E0732A00F0B08009D86F2A2ED0702A40F0B8800A6842F0DB
:4019000020020A603EE0752A24D0782A3AD0ADE01A6801F14205111D1960136884F84230A8E021681A6811F0800F02D0111D196008E011F0400F02F10401196002D0B2F9A4
:40194000003000E01368002B3CDA2D225B4284F8432037E021681A6811F0800F02D0111D196007E011F0400F02F10401196001D0138800E01368227E5C496F2A14BF0A2259
:4019800008221BE078225A4984F845202268186812F0800F00F104051D6003D1550601D5038800E00368D00744BF42F0200222601BB9226822F0200222601022002084F865
:4019C000430001E049490A226568002DA56008DB206820F0040020602BB9002D7DD175460CE0002B79D07546B3FBF2F002FB1033CB5C05F8013D03460028F5D1082A0BD15B
:401A00002368DA0708D5236962689A42DEBF302305F8013C05F1FF35C5EB0E0323612EE008681A6810F0800F496903D0101D1860136808E010F0400F02F10400186013683D
:401A400001D0198000E0196000232361754616E01A68111D1960156800216268284600F049F808B1401B6060636804E004F1420584F8422001232361002384F84330CDF8FF
:401A800000803B4603AA21463046FFF797FE013002D14FF0FF3026E023692A4639463046C0470130F5D023689B0710D5002504F1190907E001234A4639463046C047013094
:401AC000E7D00135E368039A9B1A9D42F2DBE068039B9842B8BF184605E00B7804F1420584F842308AE705B0BDE8F083311F0000421F000010B5C9B202449042034605D024
:401B00001C7801308C42F8D1184610BD002010BD884210B501EB020301D8421E0BE09842FBD28118D21AD34204D013F8014D01F8014DF8E710BD994204D011F8014B02F82E
:401B4000014FF8E710BD000038B50546002944D051F8043C0C1F002BB8BFE41800F0D4F81E4A1368114613B96360146030E0A3420DD92268A018834201BF18685B6812189A
:401B8000226063600C6023E0A24203D813465A68002AF9D118681918A1420BD12168014458188242196013D110685268014419605A600DE002D90C232B6009E021686018BE
:401BC000824201BF106852680918216062605C602846BDE8384000F098B838BD9881FF1F70B5CD1C25F0030508350C2D38BF0C25002D064601DBA94202D90C23336046E04C
:401C000000F082F8234B1C681A462146A1B10B685B1B0ED40B2B03D90B60CC18CD501EE08C420BBF63684B681360636018BF0C4615E00C464968E9E7174C23681BB9304673
:401C400000F052F820602946304600F04DF8431C18D0C41C24F00304A0420DD12560304600F053F804F10B00231D20F00700C31A0ED05A42E25070BD211A304600F034F87E
:401C80000130EBD10C233360304600F03EF8002070BD00BF9881FF1F9481FF1FF8B5074615460E4621B91146BDE8F840FFF798BF1AB9FFF749FF2846F8BD00F027F8854255
:401CC0000ED929463846FFF78BFF044650B131462A46FFF7EDFB31463846FFF735FF01E03046F8BD2046F8BD38B5064C0023054608462360FEF714FE431C02D1236803B144
:401D00002B6038BDB081FF1F7047704751F8040C0028BEBF091851F8043CC018043870470000000055626971756520656C206465646F00002A2E6B776C0D0A00636C656189
:401D4000725F70616E656C28290D00007365745F677269645F73697A652831372C38290D000000006164645F746578742831322C322C6C617267652C432C4672656375652D
:401D80006E6369612043617264696163612C3235352C32362C35372C290D00006164645F746578745F626F782831322C352C322C4C2C4E6F20432C3234352C3234302C3220
:401DC00034352C41290D00006164645F67617567652831302C342C342C35302C3130302C35302C462C2C2C31302C35290D0000006164645F726F6C6C5F6772617068283125
:401E00002C302C382C3436322E302C3437312E302C35302C542C4F78796D65747269612C7469656D706F2C4F78796D65747269612C312C302C312C302C312C312C74686952
:401E40006E2C6E6F6E652C312C312C34372C3231382C313037290D006164645F6D6F6E69746F7228312C352C352C2C31290D000072756E28290D00002A0D00002A54256CA3
:401E8000752A00005375206672656375656E636961206573203A00002A4625642A2F722A4125642A000000002A4635302A2F722A414E6F20432A00005469656D706F20650A
:401EC0007863656469646F005469656D706F20657863656469646F0D0A000000C84900401900005100401000405100403000F05100401000000001400010801401408007CE
:401F000000400140000A004C01400002005001402000000000140140EC02004880004300232D302B2000686C4C00656667454647003031323334353637383941424344453D
:401F40004600303132333435363738396162636465660000F8B500BFF8BC08BC9E4670474D0000009D090000F8B500BFF8BC08BC9E46704729000000881F0000C880FF1F92
:401F8000800000007000000000000000011E0000B881FF1F0000E02EC05D00001800000000366E0100000000000000000000000000000000000000000000000000000000D3
:401FC000000000001E1F00000000000000000000000000000000000000000000000000000000000000000000000000000000000000000000000000000000000000000000A4
:4020000000000000E480FF1F00000000000000000000000000000000000000000000000000000000000000000000000000000000000000000000000000000000000000001E
:402040000000000000000000000000000000000000000000000000000000000000000000000000000000000000000000000000000000000000000000000000000000000060
:402080000000000000000000000000000000000000000000000000000000000000000000000000000000000000000000000000000000000000000000000000000000000020
:4020C00000000000000000000000000000000000000000000000000000000000000000000000000000000000000000000000000000000000000000000000000000000000E0
:40210000000000000000000000000000000000000000000000000000000000000000000000000000000000000000000000000000000000000000000000000000000000009F
:020000040003F7
:0200000480007A
:40000000045200400365004002070140131401404F1501406C1601403D17014001190140011B01400240014001410140034201400343014008450140044601400447014063
:4000400001480140094901400C4C0140014D014002500140025101401041114118021C01840F853887729C80AC8086018E01910192029602A604B002B201B501B604BA207C
:40008000BE05BF10D418D604D804D904DB04DF01000A0180030805400610082009800B500C020F2010491305162019061A241B181C081D901F05210122C423482404284106
:4000C00029042A203008311132403380360139023B94401042044380480149104B805002521059215A485D026480670A80208180822083808C0490109240931596209740E2
:40010000980199619C809D809F08A009A201A404A680AC08AE04C0AFC23FC42FCA0FCC8FCE0FD00ED20CD68FD8B0E640EA010014040C06710708081009800A400B130C10CF
:400140000EAC117113061620192C1B431E03200922D024DC25712622270E2F0C333034E0350F361F37C039883A203B203F044002470449FF4A074BFF4C404D204EF04F050C
:400180005008580459045A045B045F01604061A862406320802082C28401852089208C488D138E348F0C91209201950A96019714989099139A2C9B04A001A4F8A715A8F8C4
:4001C000A903AB14AF08B0E0B10FB206B310B418B601B720B880BB02BE04BF04C053C102C5E0C6CBC80EC9FFCAFFCBFFCEF0CF44D00CD602D712D804D904DA04DB04DF013D
:40020000E6C0EA40EB0200080182044406440A240B400E020F201114128016801705181019421A041C041E021F202042220A2620272529202A902B102E802F2030023324BF
:400240003622384039143E083F2042204320472049014A025250562C5710580159025B08680269146D40731582488D409C80C0FDC2AEC43ECA5ECCA7CE6ED026D208D602DB
:40028000E040EA013010CC109C103E109C10CE209610AC10EE4008200C0156025B086440C206D606D80198219C409E029F0898219C409E029F0896100310562083108E20BA
:4002C000AA10C010D440E020EA801328144078017C208E0298219C409E029F08C40EDE03E002AB2010011A01000303C0001FE320FF0400003C0CC200440000231C40E100C1
:4003000018020000E73F18000033040C10080000081C002380010000C0030000C02C1F403810000F0000088200000014150602000300E0C028FFFFFF62A0F0410C0000001B
:400340000100000004040404000000010000000000004002001030100010101200000000000000000000000000000000007F7F0000000000000B0B00000000000001610031
:4003800061000000020001020200020000000000000000000000000000000000000000000000000000000000000000000000000000000000000000000000000000000000D3
:4003C00000000000000000000000000000000000000000000000000000000000000000000000000000000000000000000000000000000000000000000000000000000000FD
:4004000000000000000000000000000000000000000000000000000000000000000000000000000000000000000000000000000000000000000000000000000000000000BC
:40044000000000000000000000000000000000000000000000000000000000000000000000000000000000000000000000000000000000000000000000000000000000007C
:40048000000000000000000000000000000000000000000000000000000000000000000000000000000000000000000000000000000000000000000000000000000000003C
:0200000490006A
:0400000000004005B7
:0200000490105A
:04000000BC90ACAF55
:0200000490303A
:02000000D51712
:0200000490402A
:4000000000000000000000000000000000000000000000000000000000000000000000000000000000000000000000000000000000000000000000000000000000000000C0
:400040000000000000000000000000000000000000000000000000000000000000000000000000000000000000000000000000000000000000000000000000000000000080
:400080000000000000000000000000000000000000000000000000000000000000000000000000000000000000000000000000000000000000000000000000000000000040
:4000C0000000000000000000000000000000000000000000000000000000000000000000000000000000000000000000000000000000000000000000000000000000000000
:0200000490501A
:0C00000000012E16106900012E22E58080
:00000001FF