:400000000080002011000000550800005508000008B5044B1A6803F53F5302331A6000F039FC00BFFA46004010B5054C237833B9044B13B10448AFF300800123237010BD88
:400040004881FF1F0000000060190000084B10B51BB108490848AFF300800848036803B910BD074B002BFBD0BDE81040184700BF000000004C81FF1F60190000C880FF1F10
:400080000000000008B500F08DFF024B18701B7808BD00BF9581FF1F00B583B062B6424800F0CEFF00F070FF404800F09DFF404800F09AFF3F4800F097FF3F4800F094FF05
:4000C0003E4800F091FF3E4800F08EFF3D4800F08BFF3D4800F088FF3C4800F085FF4FF40053019340F29B130093C823032208211F2000F071F9364C63682360A3686360F7
:4001000000F04CFA0246A06004F10C053149284601F002F8284600F067FF2F4800F064FF63684BF2B03293422FD964332168A2688B4288BF934204D994F82030013384F897
:400140002030234A92F821300133DBB282F82130C82B25D1144692F8202002EB4202D2B21E4B1A70002384F8213084F8203004F10C0513461A49284600F0CEFF284600F09F
:4001800033FF012384F822300AE0114B93F8223033B1144800F028FF00220D4B83F82220322000F07FFEA6E785000000641900006C1900007C19000094190000CC19000070
:4001C000F8190000201A0000881A0000901A00006481FF1F941A00009C1A0000CC80FF1FA01A0000B01A000038B5054600240134B4F57A7F04D1064800F0F6FE002038BDC4
:400200000021284600F062FD0028F0D1012038BDD01A000038B504460D46FFF7E5FF68B1284600F0E5FD0121204600F08FFD002000F00AFE044600F0BFFD00E000242046BE
:4002400038BD00BF38B50D461446FFF7CDFF38B1284600F0CDFD204600F0CAFD00F0ACFD38BD00BF70B505460C46164601465720FFF7D0FF00EA0402324329465720FFF711
:40028000E1FF70BD10B54022BF210920FFF7EAFF00240BE009215720FFF7BCFF10F0400F06D00134E4B2012000F0FCFD632CF1D910BD00BF08B50246F8210920FFF7D2FFD4
:4002C00008BD00BF08B502469F210A20FFF7CAFF08BD00BF08B50246E3210A20FFF7C2FF08BD00BF08B50246FC210A20FFF7BAFF08BD00BF08B502460C215720FFF7A2FF1B
:4003000008BD00BF08B502460D215720FFF79AFF08BD00BF08B502460E215720FFF792FF08BD00BF08B5024610215720FFF78AFF08BD00BF08B50246E0210820FFF792FF61
:4003400008BD00BF08B5002204215720FFF77AFF002205215720FFF775FF002206215720FFF770FF08BD00BF08B51022EF210820FFF778FF08BD00BF08B504215720FFF7D6
:4003800049FF08BD08B506215720FFF743FF08BD08B5013803281ED8DFE800F0020810160A46F8211120FFF75DFF08BD0A0102F0F0028F211120FFF755FF08BD0A46F821E1
:4003C0001220FFF74FFF08BD0A0102F0F0028F211220FFF747FF08BD2DE9F84306460D4614461F46DDF82080DDF8249000F0F2FAFFF748FF012D03D10020FFF79BFF20E078
:40040000022D03D12020FFF795FF1AE0042D03D14020FFF78FFF14E0082D03D16020FFF789FF0EE0102D03D18020FFF783FF08E0202D03D1A020FFF77DFF02E04020FFF787
:4004400079FFFFF791FF032C03D10720FFF732FF08E0022C03D10320FFF72CFF02E00220FFF728FF4C4B1C70B9F5805F03DA0020FFF728FF17E0B9F5005F03DA2020FFF7FD
:4004800021FF10E0B9F5804F03DA4020FFF71AFF09E0B9F5804F03D16020FFF713FF02E00020FFF70FFF632F03DC0020FFF712FF32E0C72F03DC0420FFF70CFF2CE0B7F53F
:4004C000C87F03DA0820FFF705FF25E0B7F5487F03DA0C20FFF7FEFE1EE0B7F57A7F03DA1020FFF7F7FE17E0B7F5C86F03DA1420FFF7F0FE10E0B7F5486F03DA1820FFF77B
:40050000E9FE09E0B7F5486F03D11C20FFF7E2FE02E00020FFF7DEFEB8F1750F03DC0020FFF7E0FE18E0B8F1D60F03DC0120FFF7D9FE11E0B8F5CD7F03DC0220FFF7D2FECA
:400540000AE040F29B13984503D10320FFF7CAFE02E00020FFF7C6FE3046FFF7CBFE3046FFF7D0FE3046FFF7D5FE3046FFF7DAFE01210846FFF70CFF012C03D90221084686
:40058000FFF706FF022C03D903210846FFF700FFFFF7D8FEBDE8F8839481FF1F10B582B0FFF7F0FE0446FFF7E7FE844230D0002301938DF803305720FFF716FE30B30720F0
:4005C00000F016FC0121572000F0C0FB012000F03BFC012000F038FC012000F035FC012000F032FC8DF80200012000F02DFC8DF80100002000F028FC8DF8000000F0DCFBE0
:40060000009BC3F311030193FFF79CFE019800E0002002B010BD00BFFEE700BFF0B40022174611E050F82760F3B226F0FF0608E001EB420511F812406D78A5550132013B4F
:40064000DBB2002BF4D10137112FEBD9F0BC7047064B1B78DBB203F00701054A11701B09013213704422034B1A707047CF0100496E5800407658004008B50A46002100F008
:4006800042FD08BD38B54FF49C72244B1A80182202331A70022203F27E231A7008224FF040231A70032103F5007319701C4B1B78DBB21C490B701C4B1A8041F25122023BF9
:4006C0001A80002419250CE0184B1B7803F0010343EA440404F003044FF4F07000F0CCFC013D0DB1032CEFD115B90320FFF794FF0F4B4FF480721A8007221A7000220D49A1
:400700000A704820023108701A700222033B1A70094A137843F00103137038BD8040004008010049A146004022420040254200400440004006400040A243004008B500F089
:40074000D7FC08BD38B572B6334A137843F00403137000240CE0314D630019194A0011462A44084691882858FFF786FF0134E4B20A2CF0D900240BE02849A3001819420013
:4007800088188022816C406CFFF7D8FF0134E4B2002CF1D022494FF09040FFF73FFF214A137843F0020313701032137843F0020313701D4C237843F040032370A2F5863296
:4007C000513A137843F010031370082217491848FFF7B4FF082217491748FFF7AFFF0A2216491748FFF7AAFF164A137843F008031370154D61232B70FFF744FF81232B70CC
:400800000122124B1A70FFF723FF0E2221461048FFF794FF38BD00BFE8460040E41A00004800004803500140A04300405C030048C251004064030048125100406C030048B4
:4008400030510040224300400048004004000840B043004008B500F01FFC03680C2B00D1FEE7FEE708B5094B1A681044084BC31A802B02DC054B186005E000F00DFC0C2391
:4008800003604FF0FF32104608BD00BFD080FF1FB081FF1F08B5104E104D16E029686B68AC68002204E051F8040B43F8040B0432A242F8D1E868002203E0002143F8041B8D
:4008C00004328242F9D11035013E002EE6D100F0E9FBFFF7E1FBFEE7010000008C1B000008B5104A104B1A60104A136843F40073136000230AE0032B03D80D4A52F82310D0
:4009000000E00C490C4A42F8231001332F2BF2D90A4B1A780A4B1A70074A0A4B1A60FFF711FF08BD0004FA050CED00E014ED00E000000000550800000080FF1FBC7600408B
:40094000C080FF1F08ED00E010B50222114B1A7081220E3B1A70082202331A70042211331A70002401331C704FF400420A4B1A6007210F2000F0C0FA08490F2000F0A8FAD7
:400980001022074B1A70074B1C70074B1C70074B1C7010BDD649004080E100E0FD0900009681FF1F9A81FF1FA281FF1F9881FF1F08B500F069FB064A137843F0040313708D
:4009C0001032137843F00403137000F061FB08BDA543004008B5074B1B7823B9FFF7B4FF0122044B1A70FFF7E3FF4FF40042024B1A6008BD8781FF1F00E100E038B5A54B64
:400A00001C78A54B1B7813F0400F00F03A81E4B214F0010F00F01D819F4B1B78453B052B00F21481DFE813F006008200120112010600DF0004F0DF0504F00A04082C42D138
:400A4000954B1B78DBB2452B35D1944B1B7813F0FF0F10D0924B1B681B78DBB2914A137004228C4B1A7001228F4B1A7046228A4B1A702C46EDE08D4B1B7813F0020F0DD04F
:400A80008B4A137843F00A0313706022824B1A704FF40042874B1A602C46DAE0864A137843F0100313701022844B1A700422023B1A702C46CDE00022764B1A704A22764BE8
:400AC0001A702C46C5E00A2C2BD1794A137843F0A0031370754B1B7813F0020F14D06E4B1B7813F0080F01D0092300E00A23704A11780B4313706022674B1A704FF400426A
:400B00006C4B1A602C46A4E06B4A137843F0100313701022694B1A700422023B1A702C4697E0002000F0BCF92C4692E014F0020F36D15D4B1A78D2B2584B1B78DBB29A421D
:400B400010D2594A1378DBB255490968CB5CDBB254490B7004214F4B197013780133DBB2137076E0514B1B7813F0020F0CD0504A137843F00A0313706022474B1A704FF4A8
:400B800000424C4B1A6064E04B4A137843F0100313701022494B1A700422023B1A7058E0424B1B7813F0020F0CD0414A137843F09A0313706022384B1A704FF400423D4B2B
:400BC0001A6046E03C4A137843F01003137010223A4B1A700422023B1A70354A137843F09003137035E0364A1378DBB2354908682C490978C9B2C15413780133DBB213700A
:400C00001278D2B2304B1B78DBB29A4203D21022204B1A701DE0254B1B7813F0020F0CD0234A137843F00903137060221A4B1A704FF400421F4B1A600BE01F4A137843F09D
:400C4000100313700022134B1A7002E0002000F027F914F0200F1CD00F4B1B7813F0080F01D0012300E00223114A11780B431370114A137803F0EF0313701022064B1A7092
:400C800038BD054B1B7813F0100F02D11022024B1A7038BDD74900409681FF1F9981FF1FA481FF1FD84900409881FF1FA081FF1F9A81FF1F80E100E0D6490040D949004047
:400CC000A281FF1F9C81FF1FA181FF1F1A4B1B78DBB2102B29D1194B1B7813F0080F26D14FF40042164B1A604000C0B229B140F001004922104B1A7002E045220E4B1A70DD
:400D0000104B1870012201331A700F4B1B7813F0010FFAD00C4B1B7803F00A030A2B08D11022054B1A700320704702207047012070470020704700BF9681FF1FD949004069
:400D400080E100E0D8490040D7490040164B1B7813F0040F23D04000C0B229B140F001004922124B1A7002E04522104B1A70104B1870122201331A700422023B1A700D4B1D
:400D80001B7813F0010FFAD00A4B1B7803F00A030A2B06D11022054B1A7003207047022070470020704700BFD94900409681FF1FD8490040D74900400A4B1B7813F0040F24
:400DC0000ED01023074A13700421023A1170064A1370064B1B7813F0210FFAD00020704702207047D94900409681FF1FD7490040114B1B7813F0040F1BD0104B18700422D8
:400E0000013B1A7046220E4B1A700E4B1B7813F0010FFAD00B4B1B7813F0020F04D16022074B1A70002070476022054B1A70032070470220704700BFD9490040D849004040
:400E40009681FF1FD7490040114B1B7813F0040F1BD0104B1B78DBB2492B05D100220E4B1A704A220B4B1A700B4B1B7813F0010FFAD00A4B1B78DBB218B11021064A1170D1
:400E800004E06021034A117000E0002318467047D94900409681FF1FD7490040D849004001BE704710B5044605E0084B186800F0E3F8A4F50044B4F5004FF6D8034B5868D6
:400EC00000FB04F000F0D8F810BD00BFD480FF1F70B504460E46074B1D681F2802D90020FFF7DEFF04F01F04103455F8240045F8246070BD08ED00E038B504460D4607294D
:400F000002D90020FFF7CCFF1F2C02D90020FFF7C7FF04F01F0000F1604000F564406D01EDB2057038BD00BF7222074B1A700023064A13700621613A1170472110321170AC
:400F40004F321370704700BF876500408665004010B500F099F804460A4A137843F020031370013A137843F010031370023A137843F01003137000F071F8204600F088F80A
:400F800010BD00BF9765004008B5054B1B7823B9FFF7CAFF0122024B1A70FFF7D9FF08BD8881FF1F084B1B78DBB213F0200F06D0064A1078C0B213F01E0F02D170470020DB
:400FC00070470020704700BF6665004047650040034B1B7813F0040FFAD1024B18707047646500404465004038B5074B1B782BB938BDFFF7EDFF0134A4B201E00546002405
:40100000285D0028F5D138BD8881FF1F014B1B681864704708ED00E04001C0B2014B1870704700BF00E400E00122014B1A60704700E100E00122014B1A60704780E100E047
:4010400010B50446FFF7F6FF2046FFF7DFFF0720FFF7E2FFFFF7E8FF10BD00BF054A137843F0010313701032137843F001031370704700BFA24300400230800803D000BFD3
:4010800001380046FCD17047EFF3108072B6704780F31088704700BF014B1868704700BF4481FF1F0E4B70B51E460E4C0025E41AA410A54204D056F8253098470135F8E7D1
:4010C00000F052FD084B094C1E46E41AA4100025A54204D056F8253098470135F8E770BD741B0000741B0000741B00007C1B000010B5431E0A44914204D011F8014B03F8A0
:40110000014FF8E710BD03460244934202D003F8011BFAE7704700000EB400B54FF402719CB0ADF814106FF00041049107914FF6FF711DAB02900690084853F8042BADF8AB
:401140001610006802A9019300F064F8029B00221A701CB05DF804EB03B070474481FF1F2DE9F0478E6882469E420C46914698463ED88A8912F4906F3AD025680969022362
:401180006F1A656905EB450595FBF3F57B1C43449D4238BF1D4653050FD5294600F040FB064698B13A462169FFF7A2FFA38923F4906343F08003A38113E02A4600F08EFBD7
:4011C000064670B92169504600F0DEFA0C23CAF80030A3894FF0FF3043F04003A381BDE8F08726613E44266046466561ED1BA560464528BF464649463246206800F0A8FA14
:40120000A36800209B1BA36023681E442660BDE8F08700002DE9F04F9DB003938B8980461C060D4616460DD50B695BB9402100F0F7FA2860286118B90C23C8F80030CDE0FE
:4012400040236B610023099320238DF82930DFF89CB130238DF82A3037463C4614F8013B1BB9B7EB060910D003E0252BF9D02746F3E74B46324629464046FFF771FF013085
:4012800000F0A780099B4B4409933B78002B00F0A08000234FF0FF3204930793059206938DF853301A930126052221784E4800F041FA671C049B38B14B4A3C46801A06FA4D
:4012C00000F018430490EFE7D90644BF20228DF853201A0744BF2B228DF8532022782A2A03D0079A00210A200BE0039A111D12680391002A10DA524243F002000792049039
:401300000BE027463B780134303B092B03D800FB02320121F5E701B107923B782E2B1ED17B782A2B0AD1039B02371A1D1B680392002BB8BF4FF0FF33059310E0002319461A
:401340000593781C0A2407463A780130303A092A03D804FB01210123F5E703B1059103223978224800F0E6F940B14023CBEB000003FA00F0049B013718430490397806225B
:401380001B487E1C8DF8281000F0D4F988B1194B33B9039B073323F007030833039314E003AB00932A46144B04A94046AFF3008007E003AB00932A460F4B04A9404600F0F9
:4013C00093F8B0F1FF3F824603D0099B5344099342E7AB895B0601D4099801E04FF0FF301DB0BDE8F08F00BF341B00003A1B00003E1B000000000000611100002DE9F04722
:4014000091461F460A698B6806469342B8BF1346C9F8003091F843200C46DDF8208012B10133C9F800302368990642BFD9F800300233C9F80030256815F0060510D104F1C8
:40144000190A07E00123524639463046C04701301AD00135E368D9F800209B1A9D42F1DB94F843302268003318BF012392060FD5E118302081F843005A1C94F845102244C8
:40148000023382F8431003E04FF0FF30BDE8F08704F1430239463046C0470130F4D02268D9F80050E36802F00602042A08BF5D1B2269A3680CBF25EAE57500259342C4BFEE
:4014C0009B1AED184FF000091A344D4509D00123224639463046C0470130D5D009F10109F3E70020BDE8F0872DE9F04317460A7E85B06E2A984606460C460C9B01F1430E58
:4015000000F0AE8011D8632A22D009D8002A00F0BB80582A40F0CA8081F84520834955E0642A1ED0692A1CD0C0E0732A00F0B08009D86F2A2ED0702A40F0B8800A6842F09E
:4015400020020A603EE0752A24D0782A3AD0ADE01A6801F14205111D1960136884F84230A8E021681A6811F0800F02D0111D196008E011F0400F02F10401196002D0B2F968
:40158000003000E01368002B3CDA2D225B4284F8432037E021681A6811F0800F02D0111D196007E011F0400F02F10401196001D0138800E01368227E5C496F2A14BF0A221D
:4015C00008221BE078225A4984F845202268186812F0800F00F104051D6003D1550601D5038800E00368D00744BF42F0200222601BB9226822F0200222601022002084F829
:40160000430001E049490A226568002DA56008DB206820F0040020602BB9002D7DD175460CE0002B79D07546B3FBF2F002FB1033CB5C05F8013D03460028F5D1082A0BD11E
:401640002368DA0708D5236962689A42DEBF302305F8013C05F1FF35C5EB0E0323612EE008681A6810F0800F496903D0101D1860136808E010F0400F02F104001860136801
:4016800001D0198000E0196000232361754616E01A68111D1960156800216268284600F049F808B1401B6060636804E004F1420584F8422001232361002384F84330CDF8C3
:4016C00000803B4603AA21463046FFF797FE013002D14FF0FF3026E023692A4639463046C0470130F5D023689B0710D5002504F1190907E001234A4639463046C047013058
:40170000E7D00135E368039A9B1A9D42F2DBE068039B9842B8BF184605E00B7804F1420584F842308AE705B0BDE8F083451B0000561B000010B5C9B202449042034605D0C7
:401740001C7801308C42F8D1184610BD002010BD884210B501EB020301D8421E0BE09842FBD28118D21AD34204D013F8014D01F8014DF8E710BD994204D011F8014B02F8F2
:40178000014FF8E710BD000038B50546002944D051F8043C0C1F002BB8BFE41800F0D4F81E4A1368114613B96360146030E0A3420DD92268A018834201BF18685B6812185E
:4017C000226063600C6023E0A24203D813465A68002AF9D118681918A1420BD12168014458188242196013D110685268014419605A600DE002D90C232B6009E02168601882
:40180000824201BF106852680918216062605C602846BDE8384000F098B838BD9081FF1F70B5CD1C25F0030508350C2D38BF0C25002D064601DBA94202D90C23336046E017
:4018400000F082F8234B1C681A462146A1B10B685B1B0ED40B2B03D90B60CC18CD501EE08C420BBF63684B681360636018BF0C4615E00C464968E9E7174C23681BB9304637
:4018800000F052F820602946304600F04DF8431C18D0C41C24F00304A0420DD12560304600F053F804F10B00231D20F00700C31A0ED05A42E25070BD211A304600F034F842
:4018C0000130EBD10C233360304600F03EF8002070BD00BF9081FF1F8C81FF1FF8B5074615460E4621B91146BDE8F840FFF798BF1AB9FFF749FF2846F8BD00F027F8854229
:401900000ED929463846FFF78BFF044650B131462A46FFF7EDFB31463846FFF735FF01E03046F8BD2046F8BD38B5064C0023054608462360FEF796FF431C02D1236803B184
:401940002B6038BDA881FF1F7047704751F8040C0028BEBF091851F8043CC01804387047000000002A2E6B776C0D0A00636C6561725F70616E656C28290D00007365745F83
:40198000677269645F73697A652831372C38290D000000006164645F746578742831322C322C6C617267652C432C4672656375656E6369612043617264696163612C323585
:4019C000352C32362C35372C290D00006164645F746578745F626F782831322C352C322C4C2C4E6F20432C3234352C3234302C3234352C41290D00006164645F6761756702
:401A0000652831302C342C342C35302C3130302C35302C462C2C2C31302C35290D0000006164645F726F6C6C5F677261706828312C312C382C3332312E302C3334312E301D
:401A40002C35302C542C4F78796D65747269612C7469656D706F2C4F78796D65747269612C312C302C312C302C312C312C7468696E2C6E6F6E652C312C312C34372C3231F8
:401A8000382C313037290D0072756E28290D00002A0D00002A54256C752A00000D0A00002A4625642A2F722A4125642A000000002A4635302A2F722A414E6F20432A00000E
:401AC0005469656D706F20657863656469646F005469656D706F20657863656469646F0D0A000000C84900401900005100401000205100401000405100403000F0510040DB
:401B0000100000000140001000140140800200170140000500400140000A004C01400002005001402000000080160140DC02004880004300232D302B2000686C4C006566CF
:401B400067454647003031323334353637383941424344454600303132333435363738396162636465660000F8B500BFF8BC08BC9E4670474D000000E1080000F8B500BF07
:401B8000F8BC08BC9E46704729000000A01B0000C880FF1F800000006800000000000000000000001E000000B081FF1F0000E02EC05D00001800000000366E01000000008B
:401BC00000000000000000000000000000000000000000000000000000000000321B0000000000000000000000000000000000000000000000000000000000000000000098
:401C000000000000000000000000000000000000000000000000000000000000E480FF1F000000000000000000000000000000000000000000000000000000000000000022
:401C40000000000000000000000000000000000000000000000000000000000000000000000000000000000000000000000000000000000000000000000000000000000064
:401C80000000000000000000000000000000000000000000000000000000000000000000000000000000000000000000000000000000000000000000000000000000000024
:401CC00000000000000000000000000000000000000000000000000000000000000000000000000000000000000000000000000000000000000000000000000000000000E4
:401D000000000000000000000000000000000000000000000000000000000000000000000000000000000000000000000000000000000000000000000000000000000000A3
:020000040003F7
:0200000480007A
:4000000002520040036500406A1401404A150140141601404317014001190140031B0140024001400141014003420140024301400648014016490140084C0140064D0140FB
:4000400002500140025101401C016002840F86388772010802080334041305180604082009180AC00C400E201013120C140A15101614170C18801A20221524E0250128E06F
:400080002B022C032E1430103101320F331834E0352037063A083E013F414031410246BE47C0482C49FF4AFF4BFF4EF04F44500C5401580459045A045B045F0166C06A40C7
:4000C0006B0281808313840C8671870888108A40930C952C960397439E20A009A2D0A4DCA571A622A70EA814A971AB06AC10AEACB21FB330B4E0B50FB7C0B988BA20BB20AF
:40010000BF04C002C704C9FFCA07CBFFCC40CD20CEF0CF05D008D804D904DA04DF01E040E1A8E240E3200120028103200404060808060A080E100F02108211141402152036
:40014000170919201A401B181C041D041E101F2020012108221423402680271929242F2831083404370939143A013E093F024201432847104C804F02500251105240530102
:400180005608580159105A446401664082018B408C028D108F0991149204940196289E41A710C06FC2AEC4FFCA66CCC2CEC7D02ED60FE008E220E820EA09000403010C01AF
:4001C00012021A0223012401280132023301340436013E143F0454185604580459045B045F010024020106400701081409800A400D010F0410A012021320171818041A5082
:400200001B811D841E062028210422022346250428102A212B112F8030063180321438243A023B403F01400541044504461048044A014B0151015A105F02640265026610E0
:4002400069146B1970B0722273208002810485028812C097C25FC46FCA8FCC0FCE8FD00ED20CD684D8B0E201E201E008E820EA093380CC10A7803E10A780CE209610A780A5
:40028000800887809610A780E280E610031013021640531070087F02831086408B109F02A008A302AA10AF02B302C010C430D420DC80DE20E030EA90102013201708781008
:4002C0007F408020C40EDE0387409780AB20AF08B010E80410011A01000303C00010000073E70C187F080000013C00C21FFF60000280000003000004000023E30844000081
:4003000004C000000C1800001C1C63E12C1F10000F3840C08000220A000004002503060001E000C022FFFFFF62A0F0410C00000000000211040404040000000100000000B6
:40034000000040020010301000101012000000000000000000000000000000000000030003000000000B0B0000000000020001020200020000000000000000000000000094
:40038000000000000000000000000000000000000000000000000000000000000000000000000000000000000000000000000000000000000000000000000000000000003D
:4003C00000000000000000000000000000000000000000000000000000000000000000000000000000000000000000000000000000000000000000000000000000000000FD
:4004000000000000000000000000000000000000000000000000000000000000000000000000000000000000000000000000000000000000000000000000000000000000BC
:40044000000000000000000000000000000000000000000000000000000000000000000000000000000000000000000000000000000000000000000000000000000000007C
:0200000490006A
:0400000000004005B7
:0200000490105A
:04000000BC90ACAF55
:0200000490303A
:020000000A589C
:0200000490402A
:4000000000000000000000000000000000000000000000000000000000000000000000000000000000000000000000000000000000000000000000000000000000000000C0
:400040000000000000000000000000000000000000000000000000000000000000000000000000000000000000000000000000000000000000000000000000000000000080
:400080000000000000000000000000000000000000000000000000000000000000000000000000000000000000000000000000000000000000000000000000000000000040
:4000C0000000000000000000000000000000000000000000000000000000000000000000000000000000000000000000000000000000000000000000000000000000000000
:0200000490501A
:0C00000000012E16106900012E211AC10B
:00000001FF